:040000007DEF00F0A0
:10000800FACF01F0FBCF02F0E9CF03F0EACF04F01A
:10001800E1CF05F0E2CF06F0D9CF07F0DACF08F04C
:10002800F3CF09F0F4CF0AF0F6CF0BF0F7CF0CF0CE
:10003800F8CF0DF0F5CF0EF09EAA3ED09E9AABA257
:1000480002D0AB98AB88ABB4AECF10F0AECF10F007
:1000580010502F0AD8A405D04D6603D0010E4D6E5E
:100068002BD010503E0AD8A403D04D6601D00ED034
:1000780010500D0AD8A40DD04D660BD080C00FF0DB
:100088000F04D8A403D04CC041F0426A000E4C6E55
:1000980013D0000E4D6E400E4C5CD8B00DD04C50B5
:1000A800010D0001800EF324D96E0001000EF4202A
:1000B800DA6E10C0DFFF4C2A0EC0F5FF0DC0F8FF46
:1000C8000CC0F7FF0BC0F6FF0AC0F4FF09C0F3FF2E
:1000D80008C0DAFF07C0D9FF06C0E2FF05C0E1FF8C
:1000E80004C0EAFF03C0E9FF02C0FBFF01C0FAFF3A
:0600F8001100ACEF02F064
:100100000001000A006400E8031027546573746955
:100110006E6720736572766F20636F6D6D616E64BC
:10012000730D000D53544154453A2025642C20444E
:100130005554593A202564000D5570646174656406
:100140003A20256420736572766F73000000010EFB
:100150005D6E000E326E3168000E336E000E366E2C
:10016000000E356E7F0E346E000E376E000E386E48
:10017000000E306E000E2F6E07EC02F0000E126EB5
:10018000640E116E8AEC02F0010E1E6E0B0E1D6ED7
:100190006DEC01F0000EF9EC02F08098000E516E4B
:1001A000D20E506E470E386EF2A4FED7F294EEECEB
:1001B00002F011C031F012C032F036503510D8B410
:1001C00003D03506D8A0360636503510D8A411D045
:1001D000000E366E070E356E010E1E6E230E1D6E5E
:1001E00037C01FF0206A50C021F051C022F06DECE2
:1001F00001F03850D8B42CD038062AD0000E516EF9
:10020000D20E506E0FD02E0E505C010E5158D8B049
:1002100007D0010E5024506E000E5120516E26D092
:10022000372A10D0386622D0372A20D0D30E505C1F
:10023000000E5158D8A004D05006D8A0510616D0B0
:10024000000E376E8E0E386E11D0000E376E0ED047
:100250003750000AD8B4D2D7010AD8B4D4D7030A89
:10026000D8B4E0D7010AD8B4E1D7EFD78350150A44
:10027000D8A417D02A0E836E52C04EF053C04FF050
:100280004EC091FF4FC090FF56C04EF057C04FF088
:100290004EC08FFF4FC08EFF5AC04EF05BC04FF074
:1002A00016D0150E836E50C04EF051C04FF04EC0A8
:1002B00091FF4FC090FF54C04EF055C04FF04EC05C
:1002C0008FFF4FC08EFF58C04EF059C04FF04EC048
:1002D0008DFF4FC08CFF998E67D7000E266E1F0EC4
:1002E000256E89D02E50250AD8B404D02E500AECA1
:1002F00003F081D0000E276E1DC0F6FF1EC0F7FF71
:100300001D4A1E2A0800F5CF2EF02E50000AD8B440
:100310001200640AD8B403D00D0AD8A46CD025C04A
:10032000D9FF26C0DAFFDECF29F0DDCF2AF0020E9A
:100330002526000E26222A50800AF36E800EF35CDA
:10034000000ED8B4295CD8B006D0030E2712296C51
:100350002A1ED8B02A2A010E2E6E2E50050AD8B4B5
:1003600016D02E50020D010EF324F66E010EF4206D
:10037000F76E0900F5CF23F00900F5CF24F02350E4
:10038000295C24502A58D8A002D02E2AE6D727C0AC
:1003900023F0030E2316D8B403D02D0E0AEC03F07D
:1003A0002EC028F024D02850020D010EF324F66E42
:1003B000010EF420F76E0900F5CF13F00A00F5CF17
:1003C00014F029C011F02AC012F061EC02F011C043
:1003D00018F012C019F0000E1B6E0A0E1A6ECDEC4A
:1003E00002F01850300F2E6E2E500AEC03F0280643
:1003F0002828D8A4D8D71DC0F6FF1EC0F7FF1D4A75
:100400001E2A0800F5CF2EF02E666CD71200000EC3
:10041000F26E000E9D6E000EC26E0E0EC16E000ECC
:10042000C06EC09EC08AC088C086C084C092C08092
:100430000F0E926E000E936EF19E000ED56ED58C4F
:10044000D596D590D582D584D59AD598D58EF29467
:10045000000ECD6ECD8ECD92CD98CD9ACD90000E62
:10046000A36E000E8B6E000E9A6E9A849A869A92F4
:100470009A80000E996E999E000E866E8698869AD6
:10048000868C868086828684000E856E000E956E30
:10049000AA0E966E2A0E836E000E826EAC84130E28
:1004A000AF6EAC98AB8EAB88AB9A9D989D8AAC9C96
:1004B000AB9CAC8A9D989D9AF28C9D90F29AF28E9C
:1004C0001200000E166E000E156E14501310D8B4E4
:1004D0001CD0010E176E04D0D89013361436172A8C
:1004E00014AEFAD7D890153616361350115C145046
:1004F0001258D8A005D01350115E1450125A15800E
:10050000D89014321332172EEDD715C011F016C043
:1005100012F01200000E146E000E136E16D0156845
:1005200015061528D8A4FCD7156815061528D8A4D3
:10053000FCD7156815061528D8A4FCD7156815062C
:100540001528D8A4FCD7134A142A1150135C125052
:100550001458D8B01200E3D700EE80F0800EEE6A97
:10056000E806FDE100EE39F0170EEE6AE806FDE15F
:10057000060EF66E060EF76E000EF86E00EE50F0E8
:1005800010EE0DF00900F5CFEEFFE550E150FAE175
:10059000000EF86E0001A7EF00F01B501A10D8B43F
:1005A00018D0010E1C6E04D0D8901A361B361C2AA7
:1005B0001BAEFAD71A50185C1B501958D8A004D09B
:1005C0001A50185E1B50195AD8901B321A321C2E22
:1005D000F1D718C018F019C019F01200C282C2B2C7
:1005E000FED7C4CF13F0146A13C011F014C012F078
:1005F0001200126E12C011F0D8901136D890113638
:100600001128C26E120020012001200120012001CA
:1006100020010A00116E9EA8FED711C0ADFF120086
:020000040020DA
:08000000FFFFFFFFFFFFFFFF00
:020000040030CA
:0E000000FF02191E0C8981FF03C003E00340BC
:00000001FF
