:040000007DEF00F0A0
:10000800FACF01F0FBCF02F0E9CF03F0EACF04F01A
:10001800E1CF05F0E2CF06F0D9CF07F0DACF08F04C
:10002800F3CF09F0F4CF0AF0F6CF0BF0F7CF0CF0CE
:10003800F8CF0DF0F5CF0EF09EAA3ED09E9AABA257
:1000480002D0AB98AB88ABB4AECF10F0AECF10F007
:1000580010502F0AD8A405D0476603D0010E476E6A
:100068002BD010503E0AD8A403D0476601D00ED03A
:1000780010500D0AD8A40DD047660BD080C00FF0E1
:100088000F04D8A403D046C03BF03C6A000E466E6D
:1000980013D0000E476E400E465CD8B00DD04650C7
:1000A800010D0001800EF324D96E0001000EF4202A
:1000B800DA6E10C0DFFF462A0EC0F5FF0DC0F8FF4C
:1000C8000CC0F7FF0BC0F6FF0AC0F4FF09C0F3FF2E
:1000D80008C0DAFF07C0D9FF06C0E2FF05C0E1FF8C
:1000E80004C0EAFF03C0E9FF02C0FBFF01C0FAFF3A
:1000F80011006AEF02F0010E576E000E2E6E2D6889
:10010800000E316E000E306E000E2F6E7F0E326EB6
:10011800C5EC01F0000E126E640E116E48EC02F090
:100128001F0E1E6ED30E1D6E2BEC01F0000EC0ECE0
:1001380002F08098F2A4FED7F2942F4A302A040ED7
:100148002F5C000E3058D8A015D0000E306E000E6F
:100158002F6E316608D07F0E325CD8B002D0322ABA
:1001680009D0010E06D03250D8B402D0320602D0DF
:10017800000E316E32C038F038C037F037C036F074
:1001880036C035F035C034F034C033F03350ACEC01
:1001980002F011C04AF012C04BF03450ACEC02F03F
:1001A80011C04CF012C04DF03550ACEC02F011C04B
:1001B8004EF012C04FF03650ACEC02F011C050F0C7
:1001C80012C051F03750ACEC02F011C052F012C01E
:1001D80053F03850ACEC02F011C054F012C055F096
:1001E8008350150AD8A417D02A0E836E4CC048F045
:1001F8004DC049F048C091FF49C090FF50C048F039
:1002080051C049F048C08FFF49C08EFF54C048F024
:1002180055C049F016D0150E836E4AC048F04BC041
:1002280049F048C091FF49C090FF4EC048F04FC008
:1002380049F048C08FFF49C08EFF52C048F053C0F4
:1002480049F048C08DFF49C08CFF998E73D7000EC6
:10025800246E1F0E236E89D02C50250AD8B404D0E2
:100268002C50D1EC02F081D0000E256E1DC0F6FF97
:100278001EC0F7FF1D4A1E2A0800F5CF2CF02C508F
:10028800000AD8B41200640AD8B403D00D0AD8A45E
:100298006CD023C0D9FF24C0DAFFDECF27F0DDCF32
:1002A80028F0020E2326000E24222850800AF36E1E
:1002B800800EF35C000ED8B4275CD8B006D0030ECD
:1002C8002512276C281ED8B0282A010E2C6E2C5017
:1002D800050AD8B416D02C50020DC90EF324F66EB8
:1002E8001F0EF420F76E0900F5CF21F00900F5CFB5
:1002F80022F02150275C22502858D8A002D02C2A5E
:10030800E6D725C021F0030E2116D8B403D02D0E50
:10031800D1EC02F02CC026F024D02650020DC90ED4
:10032800F324F66E1F0EF420F76E0900F5CF13F0D4
:100338000A00F5CF14F027C011F028C012F01FEC06
:1003480002F011C018F012C019F0000E1B6E0A0E50
:100358001A6E8BEC02F01850300F2C6E2C50D1EC2A
:1003680002F026062628D8A4D8D71DC0F6FF1EC03E
:10037800F7FF1D4A1E2A0800F5CF2CF02C666CD713
:100388001200000EF26E000E9D6E000EC26E0E0E72
:10039800C16E000EC06EC09EC08AC088C086C08470
:1003A800C092C0800F0E926E000E936EF19E000EEA
:1003B800D56ED58CD596D590D582D584D59AD59835
:1003C800D58EF294000ECD6ECD8ECD92CD98CD9A6D
:1003D800CD90000EA36E000E8B6E000E9A6E9A845E
:1003E8009A869A929A80000E996E999E000E866E51
:1003F8008698869A868C868086828684000E856E8C
:10040800000E956EAA0E966E2A0E836E000E826EF0
:10041800AC84130EAF6EAC98AB8EAB88AB9A9D983C
:100428009D8AAC9CAB9CAC8A9D989D9AF28C9D90C1
:10043800F29AF28E1200000E166E000E156E14500F
:100448001310D8B41CD0010E176E04D0D8901336F0
:100458001436172A14AEFAD7D89015361636135014
:10046800115C14501258D8A005D01350115E1450C6
:10047800125A1580D89014321332172EEDD715C0A2
:1004880011F016C012F01200000E146E000E136E5A
:1004980016D0156815061528D8A4FCD715681506B2
:1004A8001528D8A4FCD7156815061528D8A4FCD794
:1004B800156815061528D8A4FCD7134A142A115014
:1004C800135C12501458D8B01200E3D700EE80F035
:1004D800800EEE6AE806FDE100EE33F0170EEE6AD4
:1004E800E806FDE1940EF66E050EF76E000EF86E46
:1004F80000EE4AF010EE0DF00900F5CFEEFFE550E2
:10050800E150FAE1000EF86E00017FEF00F01B5099
:100518001A10D8B418D0010E1C6E04D0D8901A3610
:100528001B361C2A1BAEFAD71A50185C1B501958D8
:10053800D8A004D01A50185E1B50195AD8901B32F4
:100548001A321C2EF1D718C018F019C019F0120071
:10055800136E13C014F0156AD8901434146E153441
:10056800156EB20E1424146E000E1520156E14C0EC
:1005780011F015C012F01200126E12C011F0D890CE
:100588001136D89011361128C26E120020012001B0
:1005980020012001200120010A00116E9EA8FED72B
:0605A80011C0ADFF1200BE
:101DC800000000C1C081C1400101C3C003800241BD
:101DD800C201C6C006800741C70005C1C581C4400D
:101DE8000401CCC00C800D41CD000FC1CF81CE4085
:101DF8000E000AC1CA81CB400B01C9C00980084145
:101E0800C801D8C018801941D9001BC1DB81DA404C
:101E18001A001EC1DE81DF401F01DDC01D801C418C
:101E2800DC0014C1D481D5401501D7C017801641F4
:101E3800D601D2C012801341D30011C1D181D04044
:101E48001001F0C030803141F10033C1F381F2401C
:101E5800320036C1F681F7403701F5C0358034418C
:101E6800F4003CC1FC81FD403D01FFC03F803E4184
:101E7800FE01FAC03A803B41FB0039C1F981F840C4
:101E8800380028C1E881E9402901EBC02B802A41AC
:101E9800EA01EEC02E802F41EF002DC1ED81EC400C
:101EA8002C01E4C024802541E50027C1E781E640F4
:101EB800260022C1E281E3402301E1C021802041C4
:101EC800E001A0C060806141A10063C1A381A2407C
:101ED800620066C1A681A7406701A5C0658064410C
:101EE800A4006CC1AC81AD406D01AFC06F806E4184
:101EF800AE01AAC06A806B41AB0069C1A981A84044
:101F0800680078C1B881B9407901BBC07B807A414B
:101F1800BA01BEC07E807F41BF007DC1BD81BC408B
:101F28007C01B4C074807541B50077C1B781B640F3
:101F3800760072C1B281B3407301B1C07180704143
:101F4800B00050C190819140510193C053805241DB
:101F5800920196C056805741970055C1958194408B
:101F680054019CC05C805D419D005FC19F819E4083
:101F78005E005AC19A819B405B0199C059805841C3
:101F8800980188C04880494189004BC18B818A40AB
:101F98004A004EC18E818F404F018DC04D804C410B
:101FA8008C0044C184818540450187C047804641F3
:101FB800860182C042804341830041C181818040C3
:101FC8004001000A006400E803102754657374692F
:101FD8006E6720736572766F20636F6D6D616E64D6
:101FE800730D000D557064617465643A2025642092
:081FF800736572766F7300003F
:020000040020DA
:08000000FFFFFFFFFFFFFFFF00
:020000040030CA
:0E000000FF02191E0C8981FF03C003E00340BC
:00000001FF
